DPSHEADER PRC123  PPC   VERF  VERIFY20140307085042000111111   030720140002                                                                                                                                                                                                                                                                                                                                                                                                                                                                                                                                                                                                                                                                                                                                                                                                                                                                                                                                                                                                                                                                                                                                                                                                                                                                                                                                                                                                                                                                                                                                                                                                                                                                                                                                                                                                                                                                                                                                                                                                      
CRDBUYPRFL2CP111-T01-111   2SC111-111       1111111   00000001111111146314123456789101957   02201403061628240000000000014653051 00000000000000                                                                  LglFirstNm           LstNm                        001111111111                          19750101         8910 Imaginary Blvd                                                                                                                                                                                                              Highlands Ranch                         CO  80129         USA3033899999          1                                                                                                    00                            000000001127CS000020400Embossed Msg              2014030616282320190120140306Y                000000003000840000000003000840+000000003000840+0020140306163657                         39900000000011111           000000011111111463100000001111111146310000000000011114629                                                  000000000000840+                                                  0000000000050131111                          ZZZ123XXX123YYY                  N            FS127-111111    0                                                                                                                                                                                                                                                                                                                                                                                                                                                                                                                                                                                                                                                                                                                                                                                       
CRDBUYPRFL2CP111-T01-111   2SC111-111       1111111   0000000111111112823                   01201403061628230000000000000000000N00000000000000                                                                  LglFirstNm           LstNm                        001111111111                          19750101         8910 Imaginary Blvd                                                                                                                                                                                                              Highlands Ranch                         CO  80129         USA3033899999          1                                                                                                    00                                             000000                                                                       000000000000840000000000000840+000000000000840+5020140306162823                                                     000000000000000000000000000000000000000000000000000000000                                                  000000000000840+                                                                                               ZZZ123XXX123YYY                  N            FS127-111111                                                                                                                                                                                                                                                                                                                                                                                                                                                                                                                                                                                                                                                                                                                                                                                            
CSR       2CP111-T01-111   1273179   00000001111111146314123456789101957   02087ppc.abcdefgh        2014030616282400000000000111146310000000000011114629Card initial add. Card Issued not active.                                                                                                                                                                                                                                                                                                                                                                                                                                                                                                                                                                               9999Not available                                                                                                                                                                                                                                                                                                                                                                                                                                                                                                                                                                                                                                                                                                                                                                                                                                                                                                                                                                                                                                                                                                                                                                                                                                                                               
TRAN      2CP111-T01-111   2SC111-111       1111111   00000001111111146314123456789101957   000600150        1 2 201403061628230000003000840000000300084000000001-1 201403060000000000003000840010         88330373182316012USA3179 FERNDALE KROGER                              8920 W. 8 Mile Rd.                                          Ferndale           MI 48220                    CARD ADDppc.vvenugop                                    000000000001464463100000000000111146290212260908503731823N0000000000050131111                                                                                                                                                       000   PPCCard Load                                         00                                                   0000000000                                                                                                                                                                                                                                                                                                                                                                                                                                                                                                                                                                                                                                                                                                                                                                                                                                                                                                                                                                                                                                                                                                                                                                                                                                                              
CSR       2CP111-T01-111   1273179   00000001111111146314123456789101957   02087ppc.abcdefgh        2014030616282400000000000111146310000000000011114629Card initial add. Card Issued not active.                                                                                                                                                                                                                                                                                                                                                                                                                                                                                                                                                                               9999Not available                                                                                                                                                                                                                                                                                                                                                                                                                                                                                                                                                                                                                                                                                                                                                                                                                                                                                                                                                                                                                                                                                                                                                                                                                                                                               
TRAN      2CP111-T01-111   2SC111-111       1111111   00000001111111146314123456789101957   000600150        1 2 201403061628230000003000840000000300084000000001-1 201403060000000000003000840010         88330373182316012USA3179 FERNDALE KROGER                              8920 W. 8 Mile Rd.                                          Ferndale           MI 48220                    CARD ADDppc.vvenugop                                    000000000001464463100000000000111146290212260908503731823N0000000000050131111                                                                                                                                                       000   PPCCard Load                                         00                                                   0000000000                                                                                                                                                                                                                                                                                                                                                                                                                                                                                                                                                                                                                                                                                                                                                                                                                                                                                                                                                                                                                                                                                                                                                                                                                                                              
CSR       2CP111-T01-111   1273179   00000001111111146314123456789101957   02087ppc.abcdefgh        2014030616282400000000000111146310000000000011114629Card initial add. Card Issued not active.                                                                                                                                                                                                                                                                                                                                                                                                                                                                                                                                                                               9999Not available                                                                                                                                                                                                                                                                                                                                                                                                                                                                                                                                                                                                                                                                                                                                                                                                                                                                                                                                                                                                                                                                                                                                                                                                                                                                               
CSR       2CP111-T01-111   1273179   00000001111111146314123456789101957   02087ppc.abcdefgh        2014030616282400000000000111146310000000000011114629Card initial add. Card Issued not active.                                                                                                                                                                                                                                                                                                                                                                                                                                                                                                                                                                               9999Not available                                                                                                                                                                                                                                                                                                                                                                                                                                                                                                                                                                                                                                                                                                                                                                                                                                                                                                                                                                                                                                                                                                                                                                                                                                                                               
TRAN      2CP111-T01-111   2SC111-111       1111111   00000001111111146314123456789101957   000600150        1 2 201403061628230000003000840000000300084000000001-1 201403060000000000003000840010         88330373182316012USA3179 FERNDALE KROGER                              8920 W. 8 Mile Rd.                                          Ferndale           MI 48220                    CARD ADDppc.vvenugop                                    000000000001464463100000000000111146290212260908503731823N0000000000050131111                                                                                                                                                       000   PPCCard Load                                         00                                                   0000000000                                                                                                                                                                                                                                                                                                                                                                                                                                                                                                                                                                                                                                                                                                                                                                                                                                                                                                                                                                                                                                                                                                                                                                                                                                                              
TRAN      2CP111-T01-111   2SC111-111       1111111   00000001111111146314123456789101957   000600150        1 2 201403061628230000003000840000000300084000000001-1 201403060000000000003000840010         88330373182316012USA3179 FERNDALE KROGER                              8920 W. 8 Mile Rd.                                          Ferndale           MI 48220                    CARD ADDppc.vvenugop                                    000000000001464463100000000000111146290212260908503731823N0000000000050131111                                                                                                                                                       000   PPCCard Load                                         00                                                   0000000000                                                                                                                                                                                                                                                                                                                                                                                                                                                                                                                                                                                                                                                                                                                                                                                                                                                                                                                                                                                                                                                                                                                                                                                                                                                              
CRDBUYPRFL2CP111-T01-111   2SC111-111       1111111   00000001111111146314123456789101957   02201403061628240000000000014653051 00000000000000                                                                  LglFirstNm           LstNm                        001111111111                          19750101         8910 Imaginary Blvd                                                                                                                                                                                                              Highlands Ranch                         CO  80129         USA3033899999          1                                                                                                    00                            000000001127CS000020400Embossed Msg              2014030616282320190120140306Y                000000003000840000000003000840+000000003000840+0020140306163657                         39900000000011111           000000011111111463100000001111111146310000000000011114629                                                  000000000000840+                                                  0000000000050131111                          ZZZ123XXX123YYY                  N            FS127-111111    0                                                                                                                                                                                                                                                                                                                                                                                                                                                                                                                                                                                                                                                                                                                                                                                       
TRAN      2CP111-T01-111   2SC111-111       1111111   00000001111111146314123456789101957   000600150        1 2 201403061628230000003000840000000300084000000001-1 201403060000000000003000840010         88330373182316012USA3179 FERNDALE KROGER                              8920 W. 8 Mile Rd.                                          Ferndale           MI 48220                    CARD ADDppc.vvenugop                                    000000000001464463100000000000111146290212260908503731823N0000000000050131111                                                                                                                                                       000   PPCCard Load                                         00                                                   0000000000                                                                                                                                                                                                                                                                                                                                                                                                                                                                                                                                                                                                                                                                                                                                                                                                                                                                                                                                                                                                                                                                                                                                                                                                                                                              
CRDBUYPRFL2CP111-T01-111   2SC111-111       1111111   00000001111111146314123456789101957   02201403061628240000000000014653051 00000000000000                                                                  LglFirstNm           LstNm                        001111111111                          19750101         8910 Imaginary Blvd                                                                                                                                                                                                              Highlands Ranch                         CO  80129         USA3033899999          1                                                                                                    00                            000000001127CS000020400Embossed Msg              2014030616282320190120140306Y                000000003000840000000003000840+000000003000840+0020140306163657                         39900000000011111           000000011111111463100000001111111146310000000000011114629                                                  000000000000840+                                                  0000000000050131111                          ZZZ123XXX123YYY                  N            FS127-111111    0                                                                                                                                                                                                                                                                                                                                                                                                                                                                                                                                                                                                                                                                                                                                                                                       
CRDBUYPRFL2CP111-T01-111   2SC111-111       1111111   00000001111111146314123456789101957   02201403061628240000000000014653051 00000000000000                                                                  LglFirstNm           LstNm                        001111111111                          19750101         8910 Imaginary Blvd                                                                                                                                                                                                              Highlands Ranch                         CO  80129         USA3033899999          1                                                                                                    00                            000000001127CS000020400Embossed Msg              2014030616282320190120140306Y                000000003000840000000003000840+000000003000840+0020140306163657                         39900000000011111           000000011111111463100000001111111146310000000000011114629                                                  000000000000840+                                                  0000000000050131111                          ZZZ123XXX123YYY                  N            FS127-111111    0                                                                                                                                                                                                                                                                                                                                                                                                                                                                                                                                                                                                                                                                                                                                                                                       
CRDBUYPRFL2CP111-T01-111   2SC111-111       1111111   00000001111111146314123456789101957   02201403061628240000000000014653051 00000000000000                                                                  LglFirstNm           LstNm                        001111111111                          19750101         8910 Imaginary Blvd                                                                                                                                                                                                              Highlands Ranch                         CO  80129         USA3033899999          1                                                                                                    00                            000000001127CS000020400Embossed Msg              2014030616282320190120140306Y                000000003000840000000003000840+000000003000840+0020140306163657                         39900000000011111           000000011111111463100000001111111146310000000000011114629                                                  000000000000840+                                                  0000000000050131111                          ZZZ123XXX123YYY                  N            FS127-111111    0                                                                                                                                                                                                                                                                                                                                                                                                                                                                                                                                                                                                                                                                                                                                                                                       
CRDBUYPRFL2CP111-T01-111   2SC111-111       1111111   00000001111111146314123456789101957   02201403061628240000000000014653051 00000000000000                                                                  LglFirstNm           LstNm                        001111111111                          19750101         8910 Imaginary Blvd                                                                                                                                                                                                              Highlands Ranch                         CO  80129         USA3033899999          1                                                                                                    00                            000000001127CS000020400Embossed Msg              2014030616282320190120140306Y                000000003000840000000003000840+000000003000840+0020140306163657                         39900000000011111           000000011111111463100000001111111146310000000000011114629                                                  000000000000840+                                                  0000000000050131111                          ZZZ123XXX123YYY                  N            FS127-111111    0                                                                                                                                                                                                                                                                                                                                                                                                                                                                                                                                                                                                                                                                                                                                                                                       
CRDBUYPRFL2CP111-T01-111   2SC111-111       1111111   00000001111111146314123456789101957   02201403061628240000000000014653051 00000000000000                                                                  LglFirstNm           LstNm                        001111111111                          19750101         8910 Imaginary Blvd                                                                                                                                                                                                              Highlands Ranch                         CO  80129         USA3033899999          1                                                                                                    00                            000000001127CS000020400Embossed Msg              2014030616282320190120140306Y                000000003000840000000003000840+000000003000840+0020140306163657                         39900000000011111           000000011111111463100000001111111146310000000000011114629                                                  000000000000840+                                                  0000000000050131111                          ZZZ123XXX123YYY                  N            FS127-111111    0                                                                                                                                                                                                                                                                                                                                                                                                                                                                                                                                                                                                                                                                                                                                                                                       
CRDBUYPRFL2CP111-T01-111   2SC111-111       1111111   00000001111111146314123456789101957   02201403061628240000000000014653051 00000000000000                                                                  LglFirstNm           LstNm                        001111111111                          19750101         8910 Imaginary Blvd                                                                                                                                                                                                              Highlands Ranch                         CO  80129         USA3033899999          1                                                                                                    00                            000000001127CS000020400Embossed Msg              2014030616282320190120140306Y                000000003000840000000003000840+000000003000840+0020140306163657                         39900000000011111           000000011111111463100000001111111146310000000000011114629                                                  000000000000840+                                                  0000000000050131111                          ZZZ123XXX123YYY                  N            FS127-111111    0                                                                                                                                                                                                                                                                                                                                                                                                                                                                                                                                                                                                                                                                                                                                                                                       
CRDBUYPRFL2CP111-T01-111   2SC111-111       1111111   00000001111111146314123456789101957   02201403061628240000000000014653051 00000000000000                                                                  LglFirstNm           LstNm                        001111111111                          19750101         8910 Imaginary Blvd                                                                                                                                                                                                              Highlands Ranch                         CO  80129         USA3033899999          1                                                                                                    00                            000000001127CS000020400Embossed Msg              2014030616282320190120140306Y                000000003000840000000003000840+000000003000840+0020140306163657                         39900000000011111           000000011111111463100000001111111146310000000000011114629                                                  000000000000840+                                                  0000000000050131111                          ZZZ123XXX123YYY                  N            FS127-111111    0                                                                                                                                                                                                                                                                                                                                                                                                                                                                                                                                                                                                                                                                                                                                                                                       
DPSTRAILERPRC123  000111111   000000004